:1000000071C000008EC000008CC000008AC00000DB
:1000100088C0000086C0000084C0000082C00000CC
:1000200080C000007EC000007CC000007AC00000DC
:1000300078C0000076C0000074C0000072C00000EC
:1000400070C000006EC000006CC000006AC00000FC
:1000500068C0000066C0000064C0000062C000000C
:1000600060C000005EC000005CC000005AC000001C
:1000700058C0000056C0000054C0000052C000002C
:1000800050C000004EC000004CC000004AC000003C
:1000900048C0000046C0000044C0000042C000004C
:1000A00040C000003EC000003CC000003AC000005C
:1000B00038C0000036C0000034C0000032C000006C
:1000C00030C000002EC000002CC000002AC000007C
:1000D00028C0000026C0000024C0000022C000008C
:1000E00020C0000011241FBECFEFD1E2DEBFCDBF84
:1000F00000E00CBF12E0A0E0B2E0EAECFCE000E0BF
:100100000BBF02C007900D92A831B107D9F722E0CA
:10011000A8E1B2E001C01D92A432B207E1F72FD2EC
:10012000D2C56ECF87B1876087B987B1806F87B935
:1001300088B1887F88B988B18F7088B9089586E6BC
:100140009EE00197F1F700004098419880E388B95C
:10015000429AEFEFF7E43197F1F700C000004298C0
:10016000E6E6FEE03197F1F700004098419888B943
:10017000429AEFEFF7E43197F1F700C000004298A0
:10018000E6E6FEE03197F1F700004098419888B923
:10019000429A8FEF97E40197F1F700C00000429870
:1001A000E6E6FEE03197F1F700004098419880E2E2
:1001B00088B9429A8FEF97E40197F1F700C00000E9
:1001C0004298089598B19F7098B998B1282F207FD0
:1001D000922B98B940984198429AEFEFF7E4319703
:1001E000F1F700C00000429898B19F7098B998B19B
:1001F0008295807F892B88B940984198429A8FEFE9
:1002000097E40197F1F700C000004298089597DF46
:1002100086E69EE00197F1F7000088E2D3DF81E0F7
:10022000D1DF86E0CFDF8EE0CDDF80E8CBCF089551
:1002300080E8C8CF0895823069F018F4813031F039
:100240000895833059F0843069F008958FE7860F60
:10025000B9CF08958FEB860FB5CF089583E9860F48
:10026000B1CF089583ED860FADCF0895CF93C42FFE
:10027000E2DF88B18F7088B988B19C2F907F892B7D
:1002800088B9409A4198429A8FEF97E40197F1F725
:1002900000C00000429888B18F7088B988B1C295BB
:1002A000C07FC82BC8B9409A4198429A8FEF97E413
:1002B0000197F1F700C000004298CF9108950F9385
:1002C0001F93CF93DF93D82FC62FFA014081442389
:1002D00061F08F010F5F1F4F6C2F8D2FC7DFCF5F36
:1002E000F80141918F014111F7CFDF91CF911F911B
:1002F0000F910895EF92FF920F931F93CF93DF9387
:10030000D82FC62F7A01890196DFFF204CF4F19493
:10031000E194F10840E052E06C2F8D2FD0DFCF5FE9
:10032000DD2311F0C11102C083DF03C06C2F8D2FBC
:1003300082DF0530110509F0ADC0C70160E177E249
:10034000B1D1AB01405D5F4F509319024093180249
:100350006C2F8D2F8BDFCF5FC70168EE73E0A2D1CA
:10036000AB0170931B0260931A029B01ADECBCECD5
:10037000ACD19695879596958795969587959C018E
:10038000220F331F880F991F880F991F880F991FFD
:10039000820F931F481B590B405D5F4F5093230200
:1003A000409322026C2F8D2F61DFCF5F03C003309B
:1003B000110559F5C70164E670E074D1AB01709383
:1003C0001B0260931A029B01ADECBCEC7ED19695AA
:1003D000879596958795969587959C01220F331F53
:1003E000880F991F880F991F880F991F820F931FDD
:1003F000481B590B405D5F4F50931F0240931E02F4
:100400006C2F8D2F33DFCF5F04C00230110509F050
:1004100046C0C7016AE070E045D1AB0170931B0292
:1004200060931A029B01ADECBCEC4FD19695879579
:1004300096958795969587959C01220F331F880F77
:10044000991F880F991F880F991F820F931F481BB0
:10045000590B405D5F4F50931D0240931C026C2F5F
:100460008D2F04DFCF5FC7016AE070E01BD1AC01C4
:10047000405D5F4F50932102409320026C2F8D2FDF
:10048000F5DECF5F0630110574F045E46C2F8D2F3B
:10049000EDDE09C00430110509F089CF5DCF0130D0
:1004A000110581F7E0CFDF91CF911F910F91FF9060
:1004B000EF90089580B3817F80BB81B3817F81BB42
:1004C000089580B38F7380BB81B38F7381BBE7E0E6
:1004D000F1E080818E7F8083E8E0F1E080818E7F93
:1004E00080830895EAE7F0E08081877886688083DA
:1004F00010927B00ECE7F0E080818076806480835E
:1005000080818062808380B7806880BF0895883052
:1005100028F0EBE7F0E0908198609083ECE7F0E062
:1005200090818770892B80830895EAE7F0E08081CD
:1005300080648083089580917A0086FB882780F903
:1005400091E089270895EAE7F0E080818061808367
:10055000ECE7F0E08081807E8083EBE7F0E0808153
:10056000877F80830895CF93D2DFDFDFE4DF8823A6
:10057000E9F3C0917900E7DF8C2FCF910895CF93F5
:10058000DF93CDB7DEB769970FB6F894DEBF0FBE25
:10059000CDBF90DF96DFA6DFC5DD39DE8FE590E0C9
:1005A00055D00F2EF2E0CF2EF2E0DF2EF02DCE014F
:1005B00001967C0183E0D7DF882E82E0D4DFA82E6D
:1005C00081E0D1DF982E86E0CEDFB82E87E0CBDF4A
:1005D000082F88E0C8DF182F482D50E023E030E0D6
:1005E00061E081E087DE4A2D50E023E030E065E005
:1005F00081E080DE492D50E023E030E069E081E0D9
:1006000079DE4B2D50E023E030E061E082E072DEE5
:10061000402F50E023E030E065E082E06BDE412FC8
:1006200050E023E030E069E082E064DE1F92AF92A8
:10063000DF92CF92FF92EF926BD0C70125D00F903F
:100640000F900F900F900F900F90B4CFE1EDF0E06E
:1006500010829093D5008093D400A2EDB0E08C91ED
:100660008F738C938C9186608C938081886180835A
:1006700080818B7F80830895E0EDF0E0908195FF8D
:10068000FDCF8093D6000895CF93DF93EC0188814E
:10069000882329F02196F0DF89918111FCCFDF9129
:1006A000CF91089597FB072E16F4009406D077FD9E
:1006B00008D01AD007FC05D03EF4909581959F4F45
:1006C0000895709561957F4F0895A29FB001B39FE3
:1006D000C001A39F700D811D1124911DB29F700D4B
:1006E000811D1124911D0895AA1BBB1B51E107C058
:1006F000AA1FBB1FA617B70710F0A61BB70B881FB2
:10070000991F5A95A9F780959095BC01CD01089540
:100710000F931F93CF93DF93CDB7DEB72E970FB60E
:10072000F894DEBF0FBECDBF0E891F8986E08C8393
:100730001A8309838FEF9FE79E838D83AE01465E08
:100740005F4F688D798DCE01019610D0EF81F885CD
:10075000E00FF11F10822E960FB6F894DEBF0FBE89
:10076000CDBFDF91CF911F910F9108952F923F92AE
:100770004F925F926F927F928F929F92AF92BF92B1
:10078000CF92DF92EF92FF920F931F93CF93DF935D
:10079000CDB7DEB72B970FB6F894DEBF0FBECDBF37
:1007A0006C017B018A01FC0117821682838181FF23
:1007B000BFC1CE0101963C01F6019381F70193FD83
:1007C000859193FF81917F01882309F4ADC1853222
:1007D00039F493FD859193FF81917F01853221F456
:1007E000B60190E0D6D1E8CF912C212C312CFFE13D
:1007F000F315D8F08B3279F038F4803279F0833207
:10080000A1F4232D20611DC08D3261F0803369F485
:10081000232D216016C0832D8260382EE32DE460E5
:100820003E2E2AC0F32DF8601DC037FC2DC020EDF0
:10083000280F2A3040F08E32B9F436FC75C1232DD2
:100840002064322E19C036FE06C08AE0989E200D24
:100850001124922E11C0EAE02E9E200D1124222E8A
:10086000F32DF0623F2E08C08C3621F4832D806872
:10087000382E02C0883641F4F70193FD859193FF2D
:1008800081917F018111B3CF982F9F7D9554933033
:1008900028F40C5F1F4F9FE399830DC0833631F01E
:1008A000833771F0833509F055C020C0F80180818D
:1008B00089830E5F1F4F88248394912C530112C0AB
:1008C0002801F2E04F0E511CF801A080B18036FEE5
:1008D00003C0692D70E002C06FEF7FEFC5014ED1FC
:1008E0004C018201F32DFF773F2E15C0280122E035
:1008F000420E511CF801A080B18036FE03C0692D64
:1009000070E002C06FEF7FEFC5012DD14C01F32DD8
:10091000F0683F2E820133FC19C0822D90E08816CA
:100920009906A0F4B60180E290E033D12A94F5CF85
:10093000F50137FC859137FE81915F01B60190E0AA
:1009400028D121102A9421E0821A9108811491045F
:1009500079F7E1C0843611F0893639F5F80137FEB0
:1009600007C060817181828193810C5F1F4F08C035
:1009700060817181072E000C880B990B0E5F1F4F51
:10098000F32DFF763F2E97FF09C0909580957095C7
:1009900061957F4F8F4F9F4FF0683F2E2AE030E0E8
:1009A000A30133D1882E861844C0853731F4232D16
:1009B0002F7EB22E2AE030E025C0932D997FB92EEC
:1009C0008F36C1F018F4883579F0AEC0803719F051
:1009D000883721F0A9C0E92FE061BE2EB4FE0DC01A
:1009E000FB2DF460BF2E09C034FE0AC0292F2660FB
:1009F000B22E06C028E030E005C020E130E002C0A1
:100A000020E132E0F801B7FE07C060817181828188
:100A100093810C5F1F4F06C06081718180E090E080
:100A20000E5F1F4FA301F1D0882E8618FB2DFF7794
:100A30003F2E36FE0DC0232D2E7FA22E891458F492
:100A400034FE0BC032FC09C0832D8E7EA82E05C05B
:100A5000B82CA32C03C0B82C01C0B92CA4FE0FC025
:100A6000FE01E80DF11D8081803321F49A2D997EDD
:100A7000A92E09C0A2FE06C0B394B39404C08A2D67
:100A8000867809F0B394A3FC10C0A0FE06C0B2148F
:100A900080F4280C922C9B180DC0B21458F4B601A7
:100AA00080E290E076D0B394F8CFB21418F42B180B
:100AB00002C0982C212CA4FE0FC0B60180E390E068
:100AC00068D0A2FE16C0A1FC03C088E790E002C077
:100AD00088E590E0B6010CC08A2D867851F0A1FE21
:100AE00002C08BE201C080E2A7FC8DE2B60190E07B
:100AF00050D0891430F4B60180E390E04AD09A9443
:100B0000F8CF8A94F301E80DF11D8081B60190E0E1
:100B100040D08110F6CF222009F44ECEB60180E2FB
:100B200090E037D02A94F7CFF6018681978102C0F2
:100B30008FEF9FEF2B960FB6F894DEBF0FBECDBFA1
:100B4000DF91CF911F910F91FF90EF90DF90CF90A9
:100B5000BF90AF909F908F907F906F905F904F90DD
:100B60003F902F900895FC01059061507040011056
:100B7000D8F7809590958E0F9F1F0895FC016150C6
:100B8000704001900110D8F7809590958E0F9F1FAF
:100B900008950F931F93CF93DF93FB01238121FDD2
:100BA00003C08FEF9FEF2CC022FF16C046815781F4
:100BB000248135814217530744F4A081B1819D01FE
:100BC0002F5F3F4F318320838C93268137812F5FA6
:100BD0003F4F3783268314C08B01EC01FB01008457
:100BE000F185E02D1995892BE1F6D80116968D91A6
:100BF0009C911797019617969C938E931697CE010A
:100C0000DF91CF911F910F910895FA01AA27283003
:100C100051F1203181F1E8946F936E7F6E5F7F4FC9
:100C20008F4F9F4FAF4FB1E03ED0B4E03CD0670F45
:100C3000781F891F9A1FA11D680F791F8A1F911D98
:100C4000A11D6A0F711D811D911DA11D20D009F4E8
:100C500068943F912AE0269F11243019305D31932A
:100C6000DEF6CF010895462F4770405D4193B3E013
:100C70000FD0C9F7F6CF462F4F70405D4A3318F0BA
:100C8000495D31FD4052419302D0A9F7EACFB4E06B
:100C9000A6959795879577956795BA95C9F7009723
:100CA0006105710508959B01AC010A2E06945795C4
:100CB000479537952795BA95C9F7620F731F841F1B
:0A0CC000951FA01D0895F894FFCFC2
:100CCA002D0043656E74657220574C20646174610F
:080CDA003A20253033640A00C2
:00000001FF
