:1000000071C000008EC000008CC000008AC00000DB
:1000100088C0000086C0000084C0000082C00000CC
:1000200080C000007EC000007CC000007AC00000DC
:1000300078C0000076C0000074C0000072C00000EC
:1000400070C000006EC000006CC000006AC00000FC
:1000500068C0000066C0000064C0000062C000000C
:1000600060C000005EC000005CC000005AC000001C
:1000700058C0000056C0000054C0000052C000002C
:1000800050C000004EC000004CC000004AC000003C
:1000900048C0000046C0000044C0000042C000004C
:1000A00040C000003EC000003CC000003AC000005C
:1000B00038C0000036C0000034C0000032C000006C
:1000C00030C000002EC000002CC000002AC000007C
:1000D00028C0000026C0000024C0000022C000008C
:1000E00020C0000011241FBECFEFD1E2DEBFCDBF84
:1000F00000E00CBF12E0A0E0B2E0EEE0F4E000E0CF
:100100000BBF02C007900D92A233B107D9F722E0CE
:10011000A2E3B2E001C01D92A233B207E1F763D0BF
:1001200074C16ECF8F929F92AF92BF92CF92DF92A7
:10013000EF92FF920F931F93CF93DF93CDB7DEB76C
:10014000A0970FB6F894DEBF0FBECDBF80E2E0E00F
:10015000F2E0DE01119601900D928A95E1F78E0191
:100160000F5F1F4F80E090E00F2EFFE0AF2EB12C0D
:10017000F02DCC24C394D12C14C00F974CF02FEF4A
:10018000A21AB20A6A2D81E0F0D088E197D008C0A7
:1001900046018FEF881A980A6C2D81E0E6D0640141
:1001A000C701F80141918F017C01FFEFEF1AFF0AAF
:1001B0004111E3CFA0960FB6F894DEBF0FBECDBFBE
:1001C000DF91CF911F910F91FF90EF90DF90CF9033
:1001D000BF90AF909F908F90089540E252E061E011
:1001E00082E0F2C008951AD08ED0BCD09DD0F5DF49
:1001F0002FEF8FEF99E5215080409040E1F700C04C
:100200000000B0D091D08EDF2FEF8FEF99E5215015
:1002100080409040E1F700C00000E7CF87B18760E1
:1002200087B987B1806F87B988B1887F88B988B16D
:100230008F7088B9089586E69EE00197F1F7000077
:100240004098419880E388B9429AEFEFF7E43197FC
:10025000F1F700C000004298E6E6FEE03197F1F7C2
:1002600000004098419888B9429AEFEFF7E431973F
:10027000F1F700C000004298E6E6FEE03197F1F7A2
:1002800000004098419888B9429A8FEF97E401970F
:10029000F1F700C000004298E6E6FEE03197F1F782
:1002A00000004098419880E288B9429A8FEF97E425
:1002B0000197F1F700C000004298089598B19F702F
:1002C00098B998B1282F207F922B98B940984198DF
:1002D000429AEFEFF7E43197F1F700C0000042983F
:1002E00098B19F7098B998B18295807F892B88B911
:1002F00040984198429A8FEF97E40197F1F700C038
:1003000000004298089597DF86E69EE00197F1F796
:10031000000088E2D3DF81E0D1DF86E0CFDF8EE02E
:10032000CDDF80E8CBCF089580E8C8CF0895823034
:1003300069F018F4813031F00895833059F0843039
:1003400069F008958FE7860FB9CF08958FEB860F78
:10035000B5CF089583E9860FB1CF089583ED860F59
:10036000ADCF089581E0AACF0895CF93C42FDFDFEA
:1003700088B18F7088B988B19C2F907F892B88B9FC
:100380008FEF97E40197F1F700C00000409A419881
:10039000429A8FEF97E40197F1F700C0000042986E
:1003A00088B18F7088B988B1C295C07FC82BC8B991
:1003B000409A4198429A8FEF97E40197F1F700C075
:1003C00000004298CF9108950F931F93CF93DF932E
:1003D000D82FC62FFA014081442391F08F010F5F7F
:1003E0001F4F6C2F8D2FC1DF8FEF97E40197F1F72F
:1003F00000C00000CF5FF80141918F014111F1CFA2
:0E040000DF91CF911F910F910895F894FFCFD7
:10040E00437261736820436F75727365202D2045AA
:10041E006D6265646465642053797374656D7300F1
:10042E00652D59616E7472612041636164656D79E9
:02043E000000BC
:00000001FF
