:100000000C9434000C9451000C9451000C94510049
:100010000C9451000C9451000C9451000C9451001C
:100020000C9451000C9451000C9451000C9451000C
:100030000C9451000C9451000C9451000C945100FC
:100040000C9451000C9451000C9451000C945100EC
:100050000C9451000C9451000C9451000C945100DC
:100060000C9451000C94510011241FBECFEFD8E026
:10007000DEBFCDBF11E0A0E0B1E0E6E6F6E002C0F1
:1000800005900D92AC35B107D9F721E0ACE5B1E0B0
:1000900001C01D92AC35B207E1F70E9401030C9438
:1000A00031030C94000084B1876084B98AB1806FF9
:1000B0008AB985B1887F85B98BB18F708BB9089566
:1000C0008FE99FE00197F1F700C0000028982A9877
:1000D00080E38BB9299AEFE1FEE43197F1F700C094
:1000E00000002998EFE9FFE03197F1F700C0000028
:1000F00028982A988BB9299AEFE1FEE43197F1F715
:1001000000C000002998EFE9FFE03197F1F700C047
:10011000000028982A988BB9299A8FE19EE40197CC
:10012000F1F700C000002998EFE9FFE03197F1F7FF
:1001300000C0000028982A9880E28BB9299A8FE1A4
:100140009EE40197F1F700C00000299808959BB143
:100150009F709BB99BB1282F207F922B9BB9289829
:100160002A98299AEFE1FEE43197F1F700C00000E8
:1001700029989BB19F709BB99BB18295807F892BF9
:100180008BB928982A98299A8FE19EE40197F1F774
:1001900000C00000299808950E9460008FE99FE048
:1001A0000197F1F700C0000088E20E94A70081E0FB
:1001B0000E94A70086E00E94A7008CE00E94A70092
:1001C00080E80E94A7000895823071F018F4813011
:1001D00031F00895833069F0843081F008958FE71D
:1001E000860F0E94A70008958FEB860F0E94A7003C
:1001F000089583E9860F0E94A700089583ED860F76
:100200000E94A700089581E00E94A7000895CF935F
:10021000C42F0E94E4008BB18F708BB98BB19C2FDF
:10022000907F892B8BB9289A2A98299A8FE19EE48E
:100230000197F1F700C0000029988BB18F708BB93E
:100240008BB1C295C07FC82BCBB9289A2A98299A1E
:100250008FE19EE40197F1F700C000002998CF914B
:1002600008950F931F93CF93DF93D82FC62FFA01D2
:100270004081442369F08F010F5F1F4F6C2F8D2F3A
:100280000E940701CF5FF80141918F014111F6CF24
:10029000DF91CF911F910F9108950F931F93CF93EB
:1002A000DF93883090F48B01880F880F880F805C73
:1002B0000E94A700E801085F1F4F499160E080E0BD
:1002C0000E940701C017D107C1F7DF91CF911F919D
:1002D0000F91089548E251E063E081E00E9431010E
:1002E0002FEF87EA91E6215080409040E1F700C06F
:1002F00000000E94030160E271E081E00E944D0174
:1003000041E068E082E00E940701089545E351E082
:1003100063E081E00E9431012FEF87EA91E62150EE
:1003200080409040E1F700C000000E94030168E1B6
:1003300071E082E00E944D0160E171E083E00E9483
:100340004D0168E071E084E00E944D0160E071E0E1
:1003500085E00E944D0142E061E081E00E940701DA
:1003600043E062E081E00E94070144E063E081E055
:100370000E94070145E064E081E00E94070142E03D
:1003800065E081E00E94070143E066E081E00E94B1
:10039000070144E067E081E00E94070145E068E072
:1003A00081E00E94070142E069E081E00E940701CC
:1003B00043E06AE081E00E94070144E06BE081E0F5
:1003C0000E94070145E06CE081E00E94070142E0E5
:1003D0006DE081E00E94070143E06EE081E00E9451
:1003E000070144E06FE081E00E94070145E060E121
:1003F00081E00E94070142E061E082E00E94070183
:1004000043E062E082E00E94070144E063E082E0B2
:100410000E94070145E064E082E00E94070142E09B
:1004200065E082E00E94070143E066E082E00E940E
:10043000070144E067E082E00E94070145E068E0D0
:1004400082E00E94070142E069E082E00E94070129
:1004500043E06AE082E00E94070144E06BE082E052
:100460000E94070145E06CE082E00E94070142E043
:100470006DE082E00E94070143E06EE082E00E94AE
:10048000070144E06FE082E00E94070145E060E17F
:1004900082E00E94070108954FE351E063E081E0AC
:1004A0000E9431012FEF87EA91E621508040904071
:1004B000E1F700C000000E94030141E261E081E039
:1004C0000E94070140E462E081E00E94070143E2EC
:1004D00063E081E00E94070144E264E081E00E9461
:1004E000070145E265E081E00E94070146E266E01F
:1004F00081E00E9407014AE267E081E00E94070173
:1005000008954DE451E063E081E00E9431012FEF56
:1005100087EA91E6215080409040E1F700C000005A
:100520000E94030143E566E081E00E94070141E487
:1005300067E081E00E94070149E468E081E00E94F1
:10054000070144E569E081E00E94070145E46AE0B3
:1005500081E00E9407014AE46BE081E00E9407010C
:1005600041E46CE081E00E94070140E561E082E047
:100570000E94070146E562E082E00E94070140E533
:1005800063E082E00E94070143E564E082E00E94AC
:10059000070149E465E082E00E94070144E566E066
:1005A00082E00E94070148E267E082E00E940701C2
:1005B00042E368E082E00E94070140E369E082E0F4
:1005C0000E94070141E36AE082E00E94070148E3DC
:1005D0006BE082E00E9407014DE26CE082E00E9445
:1005E000070142E36DE082E00E94070142E36EE012
:1005F00082E00E94070149E26FE082E00E94070169
:1006000008950E9453000E94CC000E9403010E94A2
:100610006A012FEF87EA91E6215080409040E1F790
:1006200000C000000E9403010E9486012FEF87EAAC
:1006300091E6215080409040E1F700C000000E9408
:1006400003010E944C022FEF87EA91E6215080407F
:100650009040E1F700C000000E9403010E94810267
:06066000FFCFF894FFCF6C
:100666000000000002041800000000000804030057
:100676001804020100000000030408100000000036
:100686001F1113161C101F00446973706C617920CA
:100696004C6F676F0053696E65205761766500532E
:1006A60070656369616C20436861727300446973A5
:0C06B600706C617920457874726100005E
:00000001FF
